{
  "_format": "hh-sol-artifact-1",
  "contractName": "SocialMedia",
  "sourceName": "contracts/SocialMediaInteraction.sol",
  "abi": [
    {
      "inputs": [],
      "stateMutability": "nonpayable",
      "type": "constructor"
    },
    {
      "anonymous": false,
      "inputs": [
        {
          "indexed": false,
          "internalType": "bytes32",
          "name": "postId",
          "type": "bytes32"
        },
        {
          "indexed": false,
          "internalType": "bytes32",
          "name": "description",
          "type": "bytes32"
        },
        {
          "indexed": false,
          "internalType": "bytes32",
          "name": "imgUrl",
          "type": "bytes32"
        },
        {
          "indexed": false,
          "internalType": "bytes32",
          "name": "videoUrl",
          "type": "bytes32"
        }
      ],
      "name": "PostUploaded",
      "type": "event"
    },
    {
      "inputs": [
        {
          "internalType": "bytes32",
          "name": "description",
          "type": "bytes32"
        },
        {
          "internalType": "bytes32",
          "name": "url",
          "type": "bytes32"
        },
        {
          "internalType": "uint256",
          "name": "typeOfMedia",
          "type": "uint256"
        }
      ],
      "name": "createPost",
      "outputs": [],
      "stateMutability": "nonpayable",
      "type": "function"
    },
    {
      "inputs": [
        {
          "internalType": "bytes32",
          "name": "",
          "type": "bytes32"
        }
      ],
      "name": "postDetails",
      "outputs": [
        {
          "internalType": "bytes32",
          "name": "postId",
          "type": "bytes32"
        },
        {
          "internalType": "address",
          "name": "creator",
          "type": "address"
        },
        {
          "internalType": "bytes32",
          "name": "description",
          "type": "bytes32"
        },
        {
          "internalType": "bytes32",
          "name": "imgUrl",
          "type": "bytes32"
        },
        {
          "internalType": "bytes32",
          "name": "videoUrl",
          "type": "bytes32"
        },
        {
          "internalType": "uint256",
          "name": "likeCount",
          "type": "uint256"
        },
        {
          "internalType": "uint256",
          "name": "shareCount",
          "type": "uint256"
        }
      ],
      "stateMutability": "view",
      "type": "function"
    },
    {
      "inputs": [
        {
          "internalType": "address",
          "name": "",
          "type": "address"
        },
        {
          "internalType": "uint256",
          "name": "",
          "type": "uint256"
        }
      ],
      "name": "userPosts",
      "outputs": [
        {
          "internalType": "bytes32",
          "name": "postId",
          "type": "bytes32"
        },
        {
          "internalType": "address",
          "name": "creator",
          "type": "address"
        },
        {
          "internalType": "bytes32",
          "name": "description",
          "type": "bytes32"
        },
        {
          "internalType": "bytes32",
          "name": "imgUrl",
          "type": "bytes32"
        },
        {
          "internalType": "bytes32",
          "name": "videoUrl",
          "type": "bytes32"
        },
        {
          "internalType": "uint256",
          "name": "likeCount",
          "type": "uint256"
        },
        {
          "internalType": "uint256",
          "name": "shareCount",
          "type": "uint256"
        }
      ],
      "stateMutability": "view",
      "type": "function"
    }
  ],
  "bytecode": "0x608060405234801561001057600080fd5b506000600281905550610a56806100286000396000f3fe608060405234801561001057600080fd5b50600436106100415760003560e01c80638064d149146100465780638948c6871461007c57806393d5f7f414610098575b600080fd5b610060600480360381019061005b9190610627565b6100ce565b604051610073979695949392919061069e565b60405180910390f35b61009660048036038101906100919190610739565b61014d565b005b6100b260048036038101906100ad919061078c565b610485565b6040516100c5979695949392919061069e565b60405180910390f35b600060205281600052604060002081815481106100ea57600080fd5b9060005260206000209060080201600091509150508060000154908060010160009054906101000a900473ffffffffffffffffffffffffffffffffffffffff16908060020154908060030154908060040154908060050154908060070154905087565b6000831415801561015f575060008214155b61019e576040517f08c379a00000000000000000000000000000000000000000000000000000000081526004016101959061083c565b60405180910390fd5b600260008154809291906101b19061088b565b9190505550600033600254426040516020016101cf93929190610993565b604051602081830303815290604052805190602001209050606060006040518061010001604052808481526020013373ffffffffffffffffffffffffffffffffffffffff1681526020018781526020016001861461022e576000610230565b865b815260200160028614610244576000610246565b865b815260200160008152602001838152602001600081525090506000803373ffffffffffffffffffffffffffffffffffffffff1673ffffffffffffffffffffffffffffffffffffffff1681526020019081526020016000208190806001815401808255809150506001900390600052602060002090600802016000909190919091506000820151816000015560208201518160010160006101000a81548173ffffffffffffffffffffffffffffffffffffffff021916908373ffffffffffffffffffffffffffffffffffffffff16021790555060408201518160020155606082015181600301556080820151816004015560a0820151816005015560c082015181600601908051906020019061035c9291906104e7565b5060e08201518160070155505080600160008581526020019081526020016000206000820151816000015560208201518160010160006101000a81548173ffffffffffffffffffffffffffffffffffffffff021916908373ffffffffffffffffffffffffffffffffffffffff16021790555060408201518160020155606082015181600301556080820151816004015560a0820151816005015560c08201518160060190805190602001906104129291906104e7565b5060e082015181600701559050507f014f66d556cf5af393d2f210b270fc6b62855e464fca63125052930fe55a9789838760018714610452576000610454565b875b60028814610463576000610465565b885b60405161047594939291906109db565b60405180910390a1505050505050565b60016020528060005260406000206000915090508060000154908060010160009054906101000a900473ffffffffffffffffffffffffffffffffffffffff16908060020154908060030154908060040154908060050154908060070154905087565b828054828255906000526020600020908101928215610560579160200282015b8281111561055f5782518260006101000a81548173ffffffffffffffffffffffffffffffffffffffff021916908373ffffffffffffffffffffffffffffffffffffffff16021790555091602001919060010190610507565b5b50905061056d9190610571565b5090565b5b8082111561058a576000816000905550600101610572565b5090565b600080fd5b600073ffffffffffffffffffffffffffffffffffffffff82169050919050565b60006105be82610593565b9050919050565b6105ce816105b3565b81146105d957600080fd5b50565b6000813590506105eb816105c5565b92915050565b6000819050919050565b610604816105f1565b811461060f57600080fd5b50565b600081359050610621816105fb565b92915050565b6000806040838503121561063e5761063d61058e565b5b600061064c858286016105dc565b925050602061065d85828601610612565b9150509250929050565b6000819050919050565b61067a81610667565b82525050565b610689816105b3565b82525050565b610698816105f1565b82525050565b600060e0820190506106b3600083018a610671565b6106c06020830189610680565b6106cd6040830188610671565b6106da6060830187610671565b6106e76080830186610671565b6106f460a083018561068f565b61070160c083018461068f565b98975050505050505050565b61071681610667565b811461072157600080fd5b50565b6000813590506107338161070d565b92915050565b6000806000606084860312156107525761075161058e565b5b600061076086828701610724565b935050602061077186828701610724565b925050604061078286828701610612565b9150509250925092565b6000602082840312156107a2576107a161058e565b5b60006107b084828501610724565b91505092915050565b600082825260208201905092915050565b7f506f7374204465736372697074696f6e2063616e6e6f7420626520626c616e6b60008201527f2100000000000000000000000000000000000000000000000000000000000000602082015250565b60006108266021836107b9565b9150610831826107ca565b604082019050919050565b6000602082019050818103600083015261085581610819565b9050919050565b7f4e487b7100000000000000000000000000000000000000000000000000000000600052601160045260246000fd5b6000610896826105f1565b91507fffffffffffffffffffffffffffffffffffffffffffffffffffffffffffffffff82036108c8576108c761085c565b5b600182019050919050565b60008160601b9050919050565b60006108eb826108d3565b9050919050565b60006108fd826108e0565b9050919050565b610915610910826105b3565b6108f2565b82525050565b600081905092915050565b7f6f776e76657273655f706f737400000000000000000000000000000000000000600082015250565b600061095c600d8361091b565b915061096782610926565b600d82019050919050565b6000819050919050565b61098d610988826105f1565b610972565b82525050565b600061099f8286610904565b6014820191506109ae8261094f565b91506109ba828561097c565b6020820191506109ca828461097c565b602082019150819050949350505050565b60006080820190506109f06000830187610671565b6109fd6020830186610671565b610a0a6040830185610671565b610a176060830184610671565b9594505050505056fea264697066735822122086869ef630d055a9f003c22b0573bd49fb9d2c2e1f906caec74852cdf206337d64736f6c63430008120033",
  "linkReferences": {},
  "deployedLinkReferences": {}
}