{
  "_format": "hh-sol-artifact-1",
  "contractName": "SocialMedia",
  "sourceName": "contracts/SocialMediaInteraction.sol",
  "abi": [
    {
      "inputs": [],
      "stateMutability": "nonpayable",
      "type": "constructor"
    },
    {
      "inputs": [
        {
          "internalType": "bytes32",
          "name": "description",
          "type": "bytes32"
        },
        {
          "internalType": "bytes32",
          "name": "url",
          "type": "bytes32"
        },
        {
          "internalType": "uint256",
          "name": "typeOfMedia",
          "type": "uint256"
        }
      ],
      "name": "createPost",
      "outputs": [],
      "stateMutability": "nonpayable",
      "type": "function"
    },
    {
      "inputs": [
        {
          "internalType": "bytes32",
          "name": "",
          "type": "bytes32"
        }
      ],
      "name": "postDetails",
      "outputs": [
        {
          "internalType": "bytes32",
          "name": "postId",
          "type": "bytes32"
        },
        {
          "internalType": "address",
          "name": "creator",
          "type": "address"
        },
        {
          "internalType": "bytes32",
          "name": "description",
          "type": "bytes32"
        },
        {
          "internalType": "bytes32",
          "name": "imgUrl",
          "type": "bytes32"
        },
        {
          "internalType": "bytes32",
          "name": "videoUrl",
          "type": "bytes32"
        },
        {
          "internalType": "uint256",
          "name": "likeCount",
          "type": "uint256"
        },
        {
          "internalType": "uint256",
          "name": "shareCount",
          "type": "uint256"
        }
      ],
      "stateMutability": "view",
      "type": "function"
    },
    {
      "inputs": [
        {
          "internalType": "address",
          "name": "",
          "type": "address"
        },
        {
          "internalType": "uint256",
          "name": "",
          "type": "uint256"
        }
      ],
      "name": "userPosts",
      "outputs": [
        {
          "internalType": "bytes32",
          "name": "postId",
          "type": "bytes32"
        },
        {
          "internalType": "address",
          "name": "creator",
          "type": "address"
        },
        {
          "internalType": "bytes32",
          "name": "description",
          "type": "bytes32"
        },
        {
          "internalType": "bytes32",
          "name": "imgUrl",
          "type": "bytes32"
        },
        {
          "internalType": "bytes32",
          "name": "videoUrl",
          "type": "bytes32"
        },
        {
          "internalType": "uint256",
          "name": "likeCount",
          "type": "uint256"
        },
        {
          "internalType": "uint256",
          "name": "shareCount",
          "type": "uint256"
        }
      ],
      "stateMutability": "view",
      "type": "function"
    }
  ],
  "bytecode": "0x608060405234801561001057600080fd5b5060006002819055506109b4806100286000396000f3fe608060405234801561001057600080fd5b50600436106100415760003560e01c80638064d149146100465780638948c6871461007c57806393d5f7f414610098575b600080fd5b610060600480360381019061005b91906105ca565b6100ce565b6040516100739796959493929190610641565b60405180910390f35b610096600480360381019061009191906106dc565b61014d565b005b6100b260048036038101906100ad919061072f565b610428565b6040516100c59796959493929190610641565b60405180910390f35b600060205281600052604060002081815481106100ea57600080fd5b9060005260206000209060080201600091509150508060000154908060010160009054906101000a900473ffffffffffffffffffffffffffffffffffffffff16908060020154908060030154908060040154908060050154908060070154905087565b6000831415801561015f575060008214155b61019e576040517f08c379a0000000000000000000000000000000000000000000000000000000008152600401610195906107df565b60405180910390fd5b600260008154809291906101b19061082e565b9190505550600033600254426040516020016101cf93929190610936565b604051602081830303815290604052805190602001209050606060006040518061010001604052808481526020013373ffffffffffffffffffffffffffffffffffffffff1681526020018781526020016001861461022e576000610230565b865b815260200160028614610244576000610246565b865b815260200160008152602001838152602001600081525090506000803373ffffffffffffffffffffffffffffffffffffffff1673ffffffffffffffffffffffffffffffffffffffff1681526020019081526020016000208190806001815401808255809150506001900390600052602060002090600802016000909190919091506000820151816000015560208201518160010160006101000a81548173ffffffffffffffffffffffffffffffffffffffff021916908373ffffffffffffffffffffffffffffffffffffffff16021790555060408201518160020155606082015181600301556080820151816004015560a0820151816005015560c082015181600601908051906020019061035c92919061048a565b5060e08201518160070155505080600160008581526020019081526020016000206000820151816000015560208201518160010160006101000a81548173ffffffffffffffffffffffffffffffffffffffff021916908373ffffffffffffffffffffffffffffffffffffffff16021790555060408201518160020155606082015181600301556080820151816004015560a0820151816005015560c082015181600601908051906020019061041292919061048a565b5060e08201518160070155905050505050505050565b60016020528060005260406000206000915090508060000154908060010160009054906101000a900473ffffffffffffffffffffffffffffffffffffffff16908060020154908060030154908060040154908060050154908060070154905087565b828054828255906000526020600020908101928215610503579160200282015b828111156105025782518260006101000a81548173ffffffffffffffffffffffffffffffffffffffff021916908373ffffffffffffffffffffffffffffffffffffffff160217905550916020019190600101906104aa565b5b5090506105109190610514565b5090565b5b8082111561052d576000816000905550600101610515565b5090565b600080fd5b600073ffffffffffffffffffffffffffffffffffffffff82169050919050565b600061056182610536565b9050919050565b61057181610556565b811461057c57600080fd5b50565b60008135905061058e81610568565b92915050565b6000819050919050565b6105a781610594565b81146105b257600080fd5b50565b6000813590506105c48161059e565b92915050565b600080604083850312156105e1576105e0610531565b5b60006105ef8582860161057f565b9250506020610600858286016105b5565b9150509250929050565b6000819050919050565b61061d8161060a565b82525050565b61062c81610556565b82525050565b61063b81610594565b82525050565b600060e082019050610656600083018a610614565b6106636020830189610623565b6106706040830188610614565b61067d6060830187610614565b61068a6080830186610614565b61069760a0830185610632565b6106a460c0830184610632565b98975050505050505050565b6106b98161060a565b81146106c457600080fd5b50565b6000813590506106d6816106b0565b92915050565b6000806000606084860312156106f5576106f4610531565b5b6000610703868287016106c7565b9350506020610714868287016106c7565b9250506040610725868287016105b5565b9150509250925092565b60006020828403121561074557610744610531565b5b6000610753848285016106c7565b91505092915050565b600082825260208201905092915050565b7f506f7374204465736372697074696f6e2063616e6e6f7420626520626c616e6b60008201527f2100000000000000000000000000000000000000000000000000000000000000602082015250565b60006107c960218361075c565b91506107d48261076d565b604082019050919050565b600060208201905081810360008301526107f8816107bc565b9050919050565b7f4e487b7100000000000000000000000000000000000000000000000000000000600052601160045260246000fd5b600061083982610594565b91507fffffffffffffffffffffffffffffffffffffffffffffffffffffffffffffffff820361086b5761086a6107ff565b5b600182019050919050565b60008160601b9050919050565b600061088e82610876565b9050919050565b60006108a082610883565b9050919050565b6108b86108b382610556565b610895565b82525050565b600081905092915050565b7f6f776e76657273655f706f737400000000000000000000000000000000000000600082015250565b60006108ff600d836108be565b915061090a826108c9565b600d82019050919050565b6000819050919050565b61093061092b82610594565b610915565b82525050565b600061094282866108a7565b601482019150610951826108f2565b915061095d828561091f565b60208201915061096d828461091f565b60208201915081905094935050505056fea26469706673582212200424ba11ab31282ab3dc210e1a7d0b6a765527e255f5aea294ec7d1251613fd964736f6c63430008120033",
  "linkReferences": {},
  "deployedLinkReferences": {}
}